{
  "contractName": "LendingPool",
  "abi": [
    {
      "inputs": [
        {
          "name": "_priceOracle",
          "type": "address"
        }
      ],
      "payable": false,
      "stateMutability": "nonpayable",
      "type": "function",
      "constant": false,
      "name": "renounceOwnership",
      "outputs": []
    },
    {
      "constant": true,
      "inputs": [
        {
          "name": "_market",
          "type": "address"
        }
      ],
      "name": "owner",
      "outputs": [
        {
          "name": "",
          "type": "address"
        }
      ],
      "payable": false,
      "stateMutability": "view",
      "type": "function"
    },
    {
      "constant": true,
      "inputs": [
        {
          "name": "_market",
          "type": "address"
        },
        {
          "name": "_amount",
          "type": "uint256"
        }
      ],
      "name": "isOwner",
      "outputs": [
        {
          "name": "",
          "type": "bool"
        }
      ],
      "payable": false,
      "stateMutability": "view",
      "type": "function"
    },
    {
      "constant": false,
      "inputs": [
        {
          "name": "newOwner",
          "type": "address"
        },
        {
          "name": "_amount",
          "type": "uint256"
        }
      ],
      "name": "transferOwnership",
      "outputs": [],
      "payable": false,
      "stateMutability": "nonpayable",
      "type": "function"
    },
    {
      "constant": false,
      "inputs": [
        {
          "name": "_priceOracle",
          "type": "address"
        },
        {
          "name": "_amount",
          "type": "uint256"
        }
      ],
      "name": "borrow",
      "outputs": [],
      "payable": false,
      "stateMutability": "nonpayable",
      "type": "constructor"
    },
    {
      "constant": false,
      "inputs": [
        {
          "name": "previousOwner",
          "type": "address",
          "indexed": true
        },
        {
          "name": "newOwner",
          "type": "address",
          "indexed": true
        }
      ],
      "name": "OwnershipTransferred",
      "outputs": [],
      "payable": false,
      "stateMutability": "nonpayable",
      "type": "event",
      "anonymous": false
    },
    {
      "constant": false,
      "inputs": [
        {
          "name": "_market",
          "type": "address"
        }
      ],
      "name": "approve",
      "outputs": [],
      "payable": false,
      "stateMutability": "nonpayable",
      "type": "function"
    },
    {
      "constant": false,
      "inputs": [
        {
          "name": "_market",
          "type": "address"
        },
        {
          "name": "_amount",
          "type": "uint256"
        }
      ],
      "name": "deposit",
      "outputs": [],
      "payable": false,
      "stateMutability": "nonpayable",
      "type": "function"
    },
    {
      "constant": false,
      "inputs": [
        {
          "name": "_market",
          "type": "address"
        },
        {
          "name": "_amount",
          "type": "uint256"
        }
      ],
      "name": "withdraw",
      "outputs": [],
      "payable": false,
      "stateMutability": "nonpayable",
      "type": "function"
    },
    {
      "constant": false,
      "inputs": [
        {
          "name": "_market",
          "type": "address"
        },
        {
          "name": "_amount",
          "type": "uint256"
        }
      ],
      "name": "borrow",
      "outputs": [],
      "payable": false,
      "stateMutability": "nonpayable",
      "type": "function"
    },
    {
      "constant": false,
      "inputs": [
        {
          "name": "_market",
          "type": "address"
        },
        {
          "name": "_amount",
          "type": "uint256"
        }
      ],
      "name": "payback",
      "outputs": [],
      "payable": false,
      "stateMutability": "nonpayable",
      "type": "function"
    },
    {
      "constant": false,
      "inputs": [
        {
          "name": "_market",
          "type": "address"
        }
      ],
      "name": "addMarket",
      "outputs": [],
      "payable": false,
      "stateMutability": "nonpayable",
      "type": "function"
    },
    {
      "constant": true,
      "inputs": [
        {
          "name": "_market",
          "type": "address"
        }
      ],
      "name": "getMarketData",
      "outputs": [
        {
          "name": "_totalLiquidity",
          "type": "uint256"
        },
        {
          "name": "_interestRate",
          "type": "uint256"
        },
        {
          "name": "_active",
          "type": "bool"
        }
      ],
      "payable": false,
      "stateMutability": "view",
      "type": "function"
    },
    {
      "constant": true,
      "inputs": [
        {
          "name": "_market",
          "type": "address"
        }
      ],
      "name": "getUserData",
      "outputs": [
        {
          "name": "_borrowedBalance",
          "type": "uint256"
        },
        {
          "name": "_liquidityBalance",
          "type": "uint256"
        }
      ],
      "payable": false,
      "stateMutability": "view",
      "type": "function"
    },
    {
      "constant": true,
      "inputs": [
        {
          "name": "_userAddress",
          "type": "address"
        }
      ],
      "name": "calculateTotalUserBalancesUSD",
      "outputs": [
        {
          "name": "_totalLiquidityBalance",
          "type": "uint256"
        },
        {
          "name": "_totalBorrowBalance",
          "type": "uint256"
        }
      ],
      "payable": false,
      "stateMutability": "view",
      "type": "function"
    }
  ],
  "bytecode": "0x608060405234801561001057600080fd5b506040516020806119bf8339810180604052602081101561003057600080fd5b8101908080519060200190929190505050336000806101000a81548173ffffffffffffffffffffffffffffffffffffffff021916908373ffffffffffffffffffffffffffffffffffffffff1602179055506000809054906101000a900473ffffffffffffffffffffffffffffffffffffffff1673ffffffffffffffffffffffffffffffffffffffff16600073ffffffffffffffffffffffffffffffffffffffff167f8be0079c531659141344cd1fd0a4f28419497f9722a3daafe3b4186f6b6457e060405160405180910390a380600160006101000a81548173ffffffffffffffffffffffffffffffffffffffff021916908373ffffffffffffffffffffffffffffffffffffffff160217905550506118718061014e6000396000f3fe608060405234801561001057600080fd5b50600436106100ec576000357c0100000000000000000000000000000000000000000000000000000000900480638f32d59b116100a9578063daea85c511610083578063daea85c51461035e578063f2fde38b146103a2578063f3fef3a3146103e6578063ffc9896b14610434576100ec565b80638f32d59b1461028e57806393e30633146102b0578063a30c302d146102f4576100ec565b80632f109efb146100f157806335ed8ab81461015057806347e7ef241461019e5780634b8a3529146101ec578063715018a61461023a5780638da5cb5b14610244575b600080fd5b6101336004803603602081101561010757600080fd5b81019080803573ffffffffffffffffffffffffffffffffffffffff169060200190929190505050610493565b604051808381526020018281526020019250505060405180910390f35b61019c6004803603604081101561016657600080fd5b81019080803573ffffffffffffffffffffffffffffffffffffffff169060200190929190803590602001909291905050506108a8565b005b6101ea600480360360408110156101b457600080fd5b81019080803573ffffffffffffffffffffffffffffffffffffffff169060200190929190803590602001909291905050506108ac565b005b6102386004803603604081101561020257600080fd5b81019080803573ffffffffffffffffffffffffffffffffffffffff16906020019092919080359060200190929190505050610bcd565b005b6102426110cc565b005b61024c61119e565b604051808273ffffffffffffffffffffffffffffffffffffffff1673ffffffffffffffffffffffffffffffffffffffff16815260200191505060405180910390f35b6102966111c7565b604051808215151515815260200191505060405180910390f35b6102f2600480360360208110156102c657600080fd5b81019080803573ffffffffffffffffffffffffffffffffffffffff16906020019092919050505061121e565b005b6103366004803603602081101561030a57600080fd5b81019080803573ffffffffffffffffffffffffffffffffffffffff169060200190929190505050611382565b6040518084815260200183815260200182151515158152602001935050505060405180910390f35b6103a06004803603602081101561037457600080fd5b81019080803573ffffffffffffffffffffffffffffffffffffffff1690602001909291905050506113f3565b005b6103e4600480360360208110156103b857600080fd5b81019080803573ffffffffffffffffffffffffffffffffffffffff169060200190929190505050611554565b005b610432600480360360408110156103fc57600080fd5b81019080803573ffffffffffffffffffffffffffffffffffffffff16906020019092919080359060200190929190505050611573565b005b6104766004803603602081101561044a57600080fd5b81019080803573ffffffffffffffffffffffffffffffffffffffff169060200190929190505050611577565b604051808381526020018281526020019250505060405180910390f35b60008060008090505b6004805490508110156108a2576000600260008673ffffffffffffffffffffffffffffffffffffffff1673ffffffffffffffffffffffffffffffffffffffff16815260200190815260200160002060006004848154811015156104fb57fe5b9060005260206000200160009054906101000a900473ffffffffffffffffffffffffffffffffffffffff1673ffffffffffffffffffffffffffffffffffffffff1673ffffffffffffffffffffffffffffffffffffffff16815260200190815260200160002090506106f9600160009054906101000a900473ffffffffffffffffffffffffffffffffffffffff1673ffffffffffffffffffffffffffffffffffffffff1673__PriceOracleLibrary____________________63a9dd14d690916004868154811015156105c957fe5b9060005260206000200160009054906101000a900473ffffffffffffffffffffffffffffffffffffffff1685600101546040518463ffffffff167c0100000000000000000000000000000000000000000000000000000000028152600401808473ffffffffffffffffffffffffffffffffffffffff1673ffffffffffffffffffffffffffffffffffffffff1681526020018373ffffffffffffffffffffffffffffffffffffffff1673ffffffffffffffffffffffffffffffffffffffff168152602001828152602001935050505060206040518083038186803b1580156106af57600080fd5b505af41580156106c3573d6000803e3d6000fd5b505050506040513d60208110156106d957600080fd5b81019080805190602001909291905050508561160e90919063ffffffff16565b9350610892600160009054906101000a900473ffffffffffffffffffffffffffffffffffffffff1673ffffffffffffffffffffffffffffffffffffffff1673__PriceOracleLibrary____________________63a9dd14d6909160048681548110151561076257fe5b9060005260206000200160009054906101000a900473ffffffffffffffffffffffffffffffffffffffff1685600001546040518463ffffffff167c0100000000000000000000000000000000000000000000000000000000028152600401808473ffffffffffffffffffffffffffffffffffffffff1673ffffffffffffffffffffffffffffffffffffffff1681526020018373ffffffffffffffffffffffffffffffffffffffff1673ffffffffffffffffffffffffffffffffffffffff168152602001828152602001935050505060206040518083038186803b15801561084857600080fd5b505af415801561085c573d6000803e3d6000fd5b505050506040513d602081101561087257600080fd5b81019080805190602001909291905050508461160e90919063ffffffff16565b925050808060010191505061049c565b50915091565b5050565b6000600360008473ffffffffffffffffffffffffffffffffffffffff1673ffffffffffffffffffffffffffffffffffffffff16815260200190815260200160002090508060040160009054906101000a900460ff161515610975576040517f08c379a00000000000000000000000000000000000000000000000000000000081526004018080602001828103825260148152602001807f4d61726b6574206973206e6f742061637469766500000000000000000000000081525060200191505060405180910390fd5b61098c82826000015461160e90919063ffffffff16565b506109a88160020154826001015461160e90919063ffffffff16565b506000600260003373ffffffffffffffffffffffffffffffffffffffff1673ffffffffffffffffffffffffffffffffffffffff16815260200190815260200160002060008573ffffffffffffffffffffffffffffffffffffffff1673ffffffffffffffffffffffffffffffffffffffff1681526020019081526020016000209050610a4083826001015461160e90919063ffffffff16565b508373ffffffffffffffffffffffffffffffffffffffff166323b872dd3330866040518463ffffffff167c0100000000000000000000000000000000000000000000000000000000028152600401808473ffffffffffffffffffffffffffffffffffffffff1673ffffffffffffffffffffffffffffffffffffffff1681526020018373ffffffffffffffffffffffffffffffffffffffff1673ffffffffffffffffffffffffffffffffffffffff1681526020018281526020019350505050602060405180830381600087803b158015610b1857600080fd5b505af1158015610b2c573d6000803e3d6000fd5b505050506040513d6020811015610b4257600080fd5b81019080805190602001909291905050501515610bc7576040517f08c379a000000000000000000000000000000000000000000000000000000000815260040180806020018281038252601f8152602001807f417070726f76616c206f662074686520636f6e7472616374206661696c65640081525060200191505060405180910390fd5b50505050565b6000600260003373ffffffffffffffffffffffffffffffffffffffff1673ffffffffffffffffffffffffffffffffffffffff16815260200190815260200160002060008473ffffffffffffffffffffffffffffffffffffffff1673ffffffffffffffffffffffffffffffffffffffff16815260200190815260200160002090506000600360008573ffffffffffffffffffffffffffffffffffffffff1673ffffffffffffffffffffffffffffffffffffffff16815260200190815260200160002090506000600160009054906101000a900473ffffffffffffffffffffffffffffffffffffffff1673ffffffffffffffffffffffffffffffffffffffff1673__PriceOracleLibrary____________________63a9dd14d6909187876040518463ffffffff167c0100000000000000000000000000000000000000000000000000000000028152600401808473ffffffffffffffffffffffffffffffffffffffff1673ffffffffffffffffffffffffffffffffffffffff1681526020018373ffffffffffffffffffffffffffffffffffffffff1673ffffffffffffffffffffffffffffffffffffffff168152602001828152602001935050505060206040518083038186803b158015610d9f57600080fd5b505af4158015610db3573d6000803e3d6000fd5b505050506040513d6020811015610dc957600080fd5b81019080805190602001909291905050509050600080610de833610493565b915091506000610e156096610e0760648561162f90919063ffffffff16565b61166d90919063ffffffff16565b9050610e2a848461160e90919063ffffffff16565b8110151515610e84576040517f08c379a00000000000000000000000000000000000000000000000000000000081526004018080602001828103825260448152602001806118026044913960600191505060405180910390fd5b6000600160009054906101000a900473ffffffffffffffffffffffffffffffffffffffff1673ffffffffffffffffffffffffffffffffffffffff1673__PriceOracleLibrary____________________63a9dd14d690918b60016040518463ffffffff167c0100000000000000000000000000000000000000000000000000000000028152600401808473ffffffffffffffffffffffffffffffffffffffff1673ffffffffffffffffffffffffffffffffffffffff1681526020018373ffffffffffffffffffffffffffffffffffffffff1673ffffffffffffffffffffffffffffffffffffffff168152602001828152602001935050505060206040518083038186803b158015610f9457600080fd5b505af4158015610fa8573d6000803e3d6000fd5b505050506040513d6020811015610fbe57600080fd5b810190808051906020019092919050505090506000610fe6828461166d90919063ffffffff16565b9050808760010154111515611046576040517f08c379a00000000000000000000000000000000000000000000000000000000081526004018080602001828103825260358152602001806117cd6035913960400191505060405180910390fd5b8089111515156110a1576040517f08c379a000000000000000000000000000000000000000000000000000000000815260040180806020018281038252603b815260200180611792603b913960400191505060405180910390fd5b6110b889896000015461160e90919063ffffffff16565b886000018190555050505050505050505050565b6110d46111c7565b15156110df57600080fd5b600073ffffffffffffffffffffffffffffffffffffffff166000809054906101000a900473ffffffffffffffffffffffffffffffffffffffff1673ffffffffffffffffffffffffffffffffffffffff167f8be0079c531659141344cd1fd0a4f28419497f9722a3daafe3b4186f6b6457e060405160405180910390a360008060006101000a81548173ffffffffffffffffffffffffffffffffffffffff021916908373ffffffffffffffffffffffffffffffffffffffff160217905550565b60008060009054906101000a900473ffffffffffffffffffffffffffffffffffffffff16905090565b60008060009054906101000a900473ffffffffffffffffffffffffffffffffffffffff1673ffffffffffffffffffffffffffffffffffffffff163373ffffffffffffffffffffffffffffffffffffffff1614905090565b6112266111c7565b151561123157600080fd5b6000600360008373ffffffffffffffffffffffffffffffffffffffff1673ffffffffffffffffffffffffffffffffffffffff16815260200190815260200160002090508060040160009054906101000a900460ff161515156112fb576040517f08c379a00000000000000000000000000000000000000000000000000000000081526004018080602001828103825260178152602001807f4d61726b657420697320616c726561647920616464656400000000000000000081525060200191505060405180910390fd5b60018160040160006101000a81548160ff02191690831515021790555060048290806001815401808255809150509060018203906000526020600020016000909192909190916101000a81548173ffffffffffffffffffffffffffffffffffffffff021916908373ffffffffffffffffffffffffffffffffffffffff160217905550505050565b600080600080600360008673ffffffffffffffffffffffffffffffffffffffff1673ffffffffffffffffffffffffffffffffffffffff168152602001908152602001600020905080600001549350806003015492508060040160009054906101000a900460ff169150509193909250565b8073ffffffffffffffffffffffffffffffffffffffff1663095ea7b3306b033b2e3c9fd0803ce80000006040518363ffffffff167c0100000000000000000000000000000000000000000000000000000000028152600401808373ffffffffffffffffffffffffffffffffffffffff1673ffffffffffffffffffffffffffffffffffffffff16815260200182815260200192505050602060405180830381600087803b1580156114a257600080fd5b505af11580156114b6573d6000803e3d6000fd5b505050506040513d60208110156114cc57600080fd5b81019080805190602001909291905050501515611551576040517f08c379a000000000000000000000000000000000000000000000000000000000815260040180806020018281038252601f8152602001807f417070726f76616c206f662074686520636f6e7472616374206661696c65640081525060200191505060405180910390fd5b50565b61155c6111c7565b151561156757600080fd5b61157081611697565b50565b5050565b6000806000600260003373ffffffffffffffffffffffffffffffffffffffff1673ffffffffffffffffffffffffffffffffffffffff16815260200190815260200160002060008573ffffffffffffffffffffffffffffffffffffffff1673ffffffffffffffffffffffffffffffffffffffff1681526020019081526020016000209050806000015492508060010154915050915091565b600080828401905083811015151561162557600080fd5b8091505092915050565b6000808314156116425760009050611667565b6000828402905082848281151561165557fe5b0414151561166257600080fd5b809150505b92915050565b6000808211151561167d57600080fd5b6000828481151561168a57fe5b0490508091505092915050565b600073ffffffffffffffffffffffffffffffffffffffff168173ffffffffffffffffffffffffffffffffffffffff16141515156116d357600080fd5b8073ffffffffffffffffffffffffffffffffffffffff166000809054906101000a900473ffffffffffffffffffffffffffffffffffffffff1673ffffffffffffffffffffffffffffffffffffffff167f8be0079c531659141344cd1fd0a4f28419497f9722a3daafe3b4186f6b6457e060405160405180910390a3806000806101000a81548173ffffffffffffffffffffffffffffffffffffffff021916908373ffffffffffffffffffffffffffffffffffffffff1602179055505056fe546865206c69717569646974792062616c616e6365206973206e6f7420656e6f75676820746f20636f76657220666f722074686520626f72726f77546865206c697175696469747920617661696c61626c65206973206e6f7420656e6f75676820666f72207468697320626f72726f77596f752063616e20626f72726f772061206d6178696d756d206f662036372520696e2076616c7565206f662074686520617661696c61626c6520636f6c6c61746572616ca165627a7a72305820c4bf95338789656dc82e69ba5ba8983d10fe1adcd6879dc37c29bdbd7a5395970029",
  "source": "pragma solidity ^0.5.2;\n\n\nimport \"openzeppelin-solidity/contracts/token/ERC20/ERC20.sol\";\nimport \"openzeppelin-solidity/contracts/math/SafeMath.sol\";\nimport \"openzeppelin-solidity/contracts/ownership/Ownable.sol\";\nimport \"./libraries/PriceOracleLibrary.sol\";\n\n/***********************\n@title LendingPool contract\n@author Aave\n@notice This is a simple lending pool contract to learn the basics of how a decentralized liquidity fund works\n\n************************/\n\ncontract LendingPool is Ownable {\n\n    using SafeMath for uint;\n    using PriceOracleLibrary for address;\n\n\n    /***********************\n    @title UserBalance structure\n    @author Aave\n    @notice the structure stores the information related to all the users of the pool.\n\n    ************************/\n\n    struct UserData {\n\n        uint borrowedBalance;\n        uint liquidityBalance;\n    }\n\n    /***********************\n    @title MarketBalance structure\n    @author Aave\n    @notice the structure stores the information related to the markets of the pool.\n\n    ************************/\n\n    struct MarketData {\n\n        uint totalLiquidity;\n        uint availableLiquidity;\n        uint totalBorrows;\n        uint interestRate;\n        bool active;\n    }\n\n    uint constant ERC20_APPROVAL_AMOUNT = 1000000000*1 ether;\n    uint constant BORROW_COLLATERAL_RATIO = 150; \n\n    address priceOracle;\n\n    mapping(address => mapping(address => UserData)) usersData;\n\n    mapping(address => MarketData) marketsData;\n    address[] markets;\n\n    constructor(address _priceOracle) public {\n        priceOracle = _priceOracle;\n    }\n\n    function approve(address _market) public {\n\n        require(ERC20(_market).approve(address(this), ERC20_APPROVAL_AMOUNT), \"Approval of the contract failed\");\n    }\n\n    function deposit(address _market, uint _amount) public {\n        \n        MarketData storage marketData = marketsData[_market];\n\n        require(marketData.active, \"Market is not active\");\n\n        marketData.totalLiquidity.add(_amount);\n        marketData.availableLiquidity.add(marketData.totalBorrows);\n\n        UserData storage userData = usersData[msg.sender][_market];\n\n        userData.liquidityBalance.add(_amount);\n\n        require(\n            ERC20(_market).transferFrom(\n                msg.sender, \n                address(this), \n                _amount),\n            \"Approval of the contract failed\"\n            );                        \n    }\n\n    function withdraw(address _market, uint _amount) public {\n\n    }\n\n    function borrow(address _market, uint _amount) public {\n\n        UserData storage userData = usersData[msg.sender][_market];\n        MarketData storage marketData = marketsData[_market];\n\n        uint amountToBorrowUSD = priceOracle.getPrice(_market, _amount);\n\n        (uint currentBorrowBalanceUSD,\n        uint currentLiquidityBalanceUSD) = calculateTotalUserBalancesUSD(msg.sender);\n\n        uint maxBorrowAvailableUSD = currentLiquidityBalanceUSD.mul(100).div(BORROW_COLLATERAL_RATIO);\n\n        require(\n            maxBorrowAvailableUSD >= currentBorrowBalanceUSD.add(amountToBorrowUSD),\n            \"You can borrow a maximum of 67% in value of the available collateral\"\n            );\n        \n        uint marketTokenUnitPrice = priceOracle.getPrice(_market, 1);\n        uint maxBorrowAvailableInTokens = maxBorrowAvailableUSD.div(marketTokenUnitPrice);\n\n     \n        require(\n            marketData.availableLiquidity > maxBorrowAvailableInTokens,\n            \"The liquidity available is not enough for this borrow\"\n        );\n\n        require(\n            _amount <= maxBorrowAvailableInTokens,\n            \"The liquidity balance is not enough to cover for the borrow\"\n        );\n\n        \n        //everything is fine, so updating the status\n        userData.borrowedBalance = userData.borrowedBalance.add(_amount);     \n\n                     \n\n\n    }\n\n    function payback(address _market, uint _amount) public {\n\n    }       \n\n    function addMarket(address _market) public onlyOwner {\n        \n        MarketData storage data = marketsData[_market];\n\n        require(!data.active, \"Market is already added\");\n\n        data.active = true;\n\n        markets.push(_market);\n\n    } \n\n\n    function getMarketData(address _market) public view returns(uint _totalLiquidity, uint _interestRate, bool _active) {\n\n        MarketData storage data = marketsData[_market];\n        _totalLiquidity = data.totalLiquidity;\n        _interestRate = data.interestRate;\n        _active = data.active;\n    }\n\n    function getUserData(address _market) public view returns(uint _borrowedBalance, uint _liquidityBalance) {\n       \n        UserData storage data = usersData[msg.sender][_market];\n        _borrowedBalance = data.borrowedBalance;\n        _liquidityBalance = data.liquidityBalance;\n\n    }\n\n\n    function calculateTotalUserBalancesUSD(address _userAddress) public view returns (uint _totalLiquidityBalance, uint _totalBorrowBalance) {\n\n\n        for(uint i = 0; i < markets.length; i++){\n\n            UserData storage data = usersData[_userAddress][markets[i]];\n            \n            _totalLiquidityBalance = _totalLiquidityBalance.add(priceOracle.getPrice(markets[i], data.liquidityBalance));\n\n            _totalBorrowBalance = _totalBorrowBalance.add(priceOracle.getPrice(markets[i], data.borrowedBalance));\n        }        \n    }\n    \n}",
  "sourcePath": "/home/emilio/code/split-croatia-workshop/contracts/LendingPool.sol",
  "compiler": {
    "name": "solc",
    "version": "0.5.2+commit.1df8f40c.Emscripten.clang"
  },
  "schemaVersion": "3.0.6",
  "updatedAt": "2019-04-23T15:23:39.148Z",
  "devdoc": {
    "author": "Aave",
    "methods": {
      "isOwner()": {
        "return": "true if `msg.sender` is the owner of the contract."
      },
      "owner()": {
        "return": "the address of the owner."
      },
      "renounceOwnership()": {
        "details": "Allows the current owner to relinquish control of the contract. It will not be possible to call the functions with the `onlyOwner` modifier anymore."
      },
      "transferOwnership(address)": {
        "details": "Allows the current owner to transfer control of the contract to a newOwner.",
        "params": {
          "newOwner": "The address to transfer ownership to."
        }
      }
    },
    "title": "LendingPool contract"
  },
  "userdoc": {
    "methods": {
      "renounceOwnership()": {
        "notice": "Renouncing ownership will leave the contract without an owner, thereby removing any functionality that is only available to the owner."
      }
    },
    "notice": "*********************This is a simple lending pool contract to learn the basics of how a decentralized liquidity fund works***********************"
  }
}