{
  "contractName": "LendingPool",
  "abi": [
    {
      "inputs": [
        {
          "name": "_priceOracle",
          "type": "address"
        }
      ],
      "payable": false,
      "stateMutability": "nonpayable",
      "type": "constructor"
    },
    {
      "constant": false,
      "inputs": [
        {
          "name": "_market",
          "type": "address"
        }
      ],
      "name": "approve",
      "outputs": [],
      "payable": false,
      "stateMutability": "nonpayable",
      "type": "function"
    },
    {
      "constant": false,
      "inputs": [
        {
          "name": "_market",
          "type": "address"
        },
        {
          "name": "_amount",
          "type": "uint256"
        }
      ],
      "name": "deposit",
      "outputs": [],
      "payable": false,
      "stateMutability": "nonpayable",
      "type": "function"
    },
    {
      "constant": false,
      "inputs": [
        {
          "name": "_market",
          "type": "address"
        },
        {
          "name": "_amount",
          "type": "uint256"
        }
      ],
      "name": "withdraw",
      "outputs": [],
      "payable": false,
      "stateMutability": "nonpayable",
      "type": "function"
    },
    {
      "constant": false,
      "inputs": [
        {
          "name": "_market",
          "type": "address"
        },
        {
          "name": "_amount",
          "type": "uint256"
        }
      ],
      "name": "borrow",
      "outputs": [],
      "payable": false,
      "stateMutability": "nonpayable",
      "type": "function"
    },
    {
      "constant": false,
      "inputs": [
        {
          "name": "_market",
          "type": "address"
        },
        {
          "name": "_amount",
          "type": "uint256"
        }
      ],
      "name": "payback",
      "outputs": [],
      "payable": false,
      "stateMutability": "nonpayable",
      "type": "function"
    }
  ],
  "bytecode": "0x608060405234801561001057600080fd5b506040516020806104238339810180604052602081101561003057600080fd5b8101908080519060200190929190505050806000806101000a81548173ffffffffffffffffffffffffffffffffffffffff021916908373ffffffffffffffffffffffffffffffffffffffff16021790555050610392806100916000396000f3fe608060405234801561001057600080fd5b5060043610610074576000357c01000000000000000000000000000000000000000000000000000000009004806335ed8ab81461007957806347e7ef24146100c75780634b8a352914610115578063daea85c514610163578063f3fef3a3146101a7575b600080fd5b6100c56004803603604081101561008f57600080fd5b81019080803573ffffffffffffffffffffffffffffffffffffffff169060200190929190803590602001909291905050506101f5565b005b610113600480360360408110156100dd57600080fd5b81019080803573ffffffffffffffffffffffffffffffffffffffff169060200190929190803590602001909291905050506101f9565b005b6101616004803603604081101561012b57600080fd5b81019080803573ffffffffffffffffffffffffffffffffffffffff169060200190929190803590602001909291905050506101fd565b005b6101a56004803603602081101561017957600080fd5b81019080803573ffffffffffffffffffffffffffffffffffffffff169060200190929190505050610201565b005b6101f3600480360360408110156101bd57600080fd5b81019080803573ffffffffffffffffffffffffffffffffffffffff16906020019092919080359060200190929190505050610362565b005b5050565b5050565b5050565b8073ffffffffffffffffffffffffffffffffffffffff1663095ea7b3306b033b2e3c9fd0803ce80000006040518363ffffffff167c0100000000000000000000000000000000000000000000000000000000028152600401808373ffffffffffffffffffffffffffffffffffffffff1673ffffffffffffffffffffffffffffffffffffffff16815260200182815260200192505050602060405180830381600087803b1580156102b057600080fd5b505af11580156102c4573d6000803e3d6000fd5b505050506040513d60208110156102da57600080fd5b8101908080519060200190929190505050151561035f576040517f08c379a000000000000000000000000000000000000000000000000000000000815260040180806020018281038252601f8152602001807f417070726f76616c206f662074686520636f6e7472616374206661696c65640081525060200191505060405180910390fd5b50565b505056fea165627a7a7230582034ee375acf045974f83d151821deee4f3832331e112e773eaa264f1de67a9ac60029",
  "source": "pragma solidity ^0.5.2;\n\n\nimport \"openzeppelin-solidity/contracts/token/ERC20/ERC20.sol\";\n\n\n/***********************\n@title LendingPool contract\n@author Aave\n@notice This is a simple lending pool contract to learn the basics of how a decentralized liquidity fund works\n\n************************/\n\ncontract LendingPool {\n\n\n    /***********************\n    @title UserBalance structure\n    @author Aave\n    @notice the structure stores the information related to all the users of the pool.\n\n    ************************/\n\n    struct UserData {\n\n        uint borrowedBalance;\n        uint liquidityBalance;\n    }\n\n    /***********************\n    @title MarketBalance structure\n    @author Aave\n    @notice the structure stores the information related to the markets of the pool.\n\n    ************************/\n\n    struct MarketData {\n\n        uint totalLiquidity;\n        uint rateIndex;\n    }\n\n    uint constant  ERC20_APPROVAL_AMOUNT = 1000000000*1 ether;\n\n    address priceOracle;\n\n    mapping(address => UserData) usersData;\n    mapping(address => MarketData) marketsData;\n\n\n    constructor(address _priceOracle) public {\n        priceOracle = _priceOracle;\n    }\n\n    function approve(address _market) public {\n\n        require(ERC20(_market).approve(address(this), ERC20_APPROVAL_AMOUNT), \"Approval of the contract failed\");\n    }\n\n    function deposit(address _market, uint _amount) public {\n\n    }\n\n    function withdraw(address _market, uint _amount) public {\n\n    }\n\n    function borrow(address _market, uint _amount) public {\n\n    }\n\n    function payback(address _market, uint _amount) public {\n\n    }        \n\n}",
  "sourcePath": "/home/emilio/code/split-croatia-workshop/contracts/LendingPool.sol",
  "compiler": {
    "name": "solc",
    "version": "0.5.2+commit.1df8f40c.Emscripten.clang"
  },
  "schemaVersion": "3.0.6",
  "updatedAt": "2019-04-23T09:06:49.645Z",
  "devdoc": {
    "author": "Aave",
    "methods": {},
    "title": "LendingPool contract"
  },
  "userdoc": {
    "methods": {},
    "notice": "*********************This is a simple lending pool contract to learn the basics of how a decentralized liquidity fund works***********************"
  }
}