{
  "contractName": "LendingPool",
  "abi": [
    {
      "constant": false,
      "inputs": [],
      "name": "renounceOwnership",
      "outputs": [],
      "payable": false,
      "stateMutability": "nonpayable",
      "type": "function",
      "signature": "0x715018a6"
    },
    {
      "constant": true,
      "inputs": [],
      "name": "owner",
      "outputs": [
        {
          "name": "",
          "type": "address"
        }
      ],
      "payable": false,
      "stateMutability": "view",
      "type": "function",
      "signature": "0x8da5cb5b"
    },
    {
      "constant": true,
      "inputs": [],
      "name": "isOwner",
      "outputs": [
        {
          "name": "",
          "type": "bool"
        }
      ],
      "payable": false,
      "stateMutability": "view",
      "type": "function",
      "signature": "0x8f32d59b"
    },
    {
      "constant": false,
      "inputs": [
        {
          "name": "newOwner",
          "type": "address"
        }
      ],
      "name": "transferOwnership",
      "outputs": [],
      "payable": false,
      "stateMutability": "nonpayable",
      "type": "function",
      "signature": "0xf2fde38b"
    },
    {
      "inputs": [
        {
          "name": "_priceOracle",
          "type": "address"
        }
      ],
      "payable": false,
      "stateMutability": "nonpayable",
      "type": "constructor",
      "signature": "constructor"
    },
    {
      "anonymous": false,
      "inputs": [
        {
          "indexed": true,
          "name": "previousOwner",
          "type": "address"
        },
        {
          "indexed": true,
          "name": "newOwner",
          "type": "address"
        }
      ],
      "name": "OwnershipTransferred",
      "type": "event",
      "signature": "0x8be0079c531659141344cd1fd0a4f28419497f9722a3daafe3b4186f6b6457e0"
    },
    {
      "constant": false,
      "inputs": [
        {
          "name": "_market",
          "type": "address"
        }
      ],
      "name": "approve",
      "outputs": [],
      "payable": false,
      "stateMutability": "nonpayable",
      "type": "function",
      "signature": "0xdaea85c5"
    },
    {
      "constant": false,
      "inputs": [
        {
          "name": "_market",
          "type": "address"
        },
        {
          "name": "_amount",
          "type": "uint256"
        }
      ],
      "name": "deposit",
      "outputs": [],
      "payable": false,
      "stateMutability": "nonpayable",
      "type": "function",
      "signature": "0x47e7ef24"
    },
    {
      "constant": false,
      "inputs": [
        {
          "name": "_market",
          "type": "address"
        },
        {
          "name": "_amount",
          "type": "uint256"
        }
      ],
      "name": "withdraw",
      "outputs": [],
      "payable": false,
      "stateMutability": "nonpayable",
      "type": "function",
      "signature": "0xf3fef3a3"
    },
    {
      "constant": false,
      "inputs": [
        {
          "name": "_market",
          "type": "address"
        },
        {
          "name": "_amount",
          "type": "uint256"
        }
      ],
      "name": "borrow",
      "outputs": [],
      "payable": false,
      "stateMutability": "nonpayable",
      "type": "function",
      "signature": "0x4b8a3529"
    },
    {
      "constant": false,
      "inputs": [
        {
          "name": "_market",
          "type": "address"
        },
        {
          "name": "_amount",
          "type": "uint256"
        }
      ],
      "name": "payback",
      "outputs": [],
      "payable": false,
      "stateMutability": "nonpayable",
      "type": "function",
      "signature": "0x35ed8ab8"
    },
    {
      "constant": false,
      "inputs": [
        {
          "name": "_market",
          "type": "address"
        }
      ],
      "name": "addMarket",
      "outputs": [],
      "payable": false,
      "stateMutability": "nonpayable",
      "type": "function",
      "signature": "0x93e30633"
    },
    {
      "constant": true,
      "inputs": [
        {
          "name": "_market",
          "type": "address"
        }
      ],
      "name": "getMarketData",
      "outputs": [
        {
          "name": "_totalLiquidity",
          "type": "uint256"
        },
        {
          "name": "_interestRate",
          "type": "uint256"
        },
        {
          "name": "_active",
          "type": "bool"
        }
      ],
      "payable": false,
      "stateMutability": "view",
      "type": "function",
      "signature": "0xa30c302d"
    },
    {
      "constant": true,
      "inputs": [
        {
          "name": "_market",
          "type": "address"
        }
      ],
      "name": "getUserData",
      "outputs": [
        {
          "name": "_borrowedBalance",
          "type": "uint256"
        },
        {
          "name": "_liquidityBalance",
          "type": "uint256"
        }
      ],
      "payable": false,
      "stateMutability": "view",
      "type": "function",
      "signature": "0xffc9896b"
    }
  ],
  "bytecode": "0x608060405234801561001057600080fd5b5060405160208061073e8339810180604052602081101561003057600080fd5b5051600080546001600160a01b03191633178082556040516001600160a01b039190911691907f8be0079c531659141344cd1fd0a4f28419497f9722a3daafe3b4186f6b6457e0908290a3600180546001600160a01b0319166001600160a01b0392909216919091179055610694806100aa6000396000f3fe608060405234801561001057600080fd5b50600436106100b45760003560e01c806393e306331161007157806393e306331461015b578063a30c302d14610181578063daea85c5146101c7578063f2fde38b146101ed578063f3fef3a3146100b9578063ffc9896b14610213576100b4565b806335ed8ab8146100b957806347e7ef24146100e75780634b8a3529146100b9578063715018a6146101135780638da5cb5b1461011b5780638f32d59b1461013f575b600080fd5b6100e5600480360360408110156100cf57600080fd5b506001600160a01b038135169060200135610252565b005b6100e5600480360360408110156100fd57600080fd5b506001600160a01b038135169060200135610256565b6100e5610384565b6101236103df565b604080516001600160a01b039092168252519081900360200190f35b6101476103ee565b604080519115158252519081900360200190f35b6100e56004803603602081101561017157600080fd5b50356001600160a01b03166103ff565b6101a76004803603602081101561019757600080fd5b50356001600160a01b0316610496565b604080519384526020840192909252151582820152519081900360600190f35b6100e5600480360360208110156101dd57600080fd5b50356001600160a01b03166104c4565b6100e56004803603602081101561020357600080fd5b50356001600160a01b03166105a4565b6102396004803603602081101561022957600080fd5b50356001600160a01b03166105be565b6040805192835260208301919091528051918290030190f35b5050565b6001600160a01b03821660009081526003602052604090208054610280908363ffffffff6105e116565b5033600090815260026020526040902060018101546102a5908463ffffffff6105e116565b5060408051600160e01b6323b872dd0281523360048201523060248201526044810185905290516001600160a01b038616916323b872dd9160648083019260209291908290030181600087803b1580156102fe57600080fd5b505af1158015610312573d6000803e3d6000fd5b505050506040513d602081101561032857600080fd5b505161037e5760408051600160e51b62461bcd02815260206004820152601f60248201527f417070726f76616c206f662074686520636f6e7472616374206661696c656400604482015290519081900360640190fd5b50505050565b61038c6103ee565b61039557600080fd5b600080546040516001600160a01b03909116907f8be0079c531659141344cd1fd0a4f28419497f9722a3daafe3b4186f6b6457e0908390a3600080546001600160a01b0319169055565b6000546001600160a01b031690565b6000546001600160a01b0316331490565b6104076103ee565b61041057600080fd5b6001600160a01b0381166000908152600360205260409020600281015460ff16156104855760408051600160e51b62461bcd02815260206004820152601760248201527f4d61726b657420697320616c7265616479206164646564000000000000000000604482015290519081900360640190fd5b600201805460ff1916600117905550565b6001600160a01b0316600090815260036020526040902080546001820154600290920154909260ff90911690565b60408051600160e01b63095ea7b30281523060048201526b033b2e3c9fd0803ce8000000602482015290516001600160a01b0383169163095ea7b39160448083019260209291908290030181600087803b15801561052157600080fd5b505af1158015610535573d6000803e3d6000fd5b505050506040513d602081101561054b57600080fd5b50516105a15760408051600160e51b62461bcd02815260206004820152601f60248201527f417070726f76616c206f662074686520636f6e7472616374206661696c656400604482015290519081900360640190fd5b50565b6105ac6103ee565b6105b557600080fd5b6105a1816105fa565b6001600160a01b0316600090815260026020526040902080546001909101549091565b6000828201838110156105f357600080fd5b9392505050565b6001600160a01b03811661060d57600080fd5b600080546040516001600160a01b03808516939216917f8be0079c531659141344cd1fd0a4f28419497f9722a3daafe3b4186f6b6457e091a3600080546001600160a01b0319166001600160a01b039290921691909117905556fea165627a7a72305820cd677b80021379a5287e40a38f3ecbcda29fd07693148b8bc3f68f90fb108e370029",
  "source": "pragma solidity ^0.5.6;\n\n\nimport \"openzeppelin-solidity/contracts/token/ERC20/ERC20.sol\";\nimport \"openzeppelin-solidity/contracts/math/SafeMath.sol\";\nimport \"openzeppelin-solidity/contracts/ownership/Ownable.sol\";\n\n\n/***********************\n@title LendingPool contract\n@author Aave\n@notice This is a simple lending pool contract to learn the basics of how a decentralized liquidity fund works\n\n************************/\n\ncontract LendingPool is Ownable {\n\n    using SafeMath for uint;\n\n\n    /***********************\n    @title UserBalance structure\n    @author Aave\n    @notice the structure stores the information related to all the users of the pool.\n\n    ************************/\n\n    struct UserData {\n\n        uint borrowedBalance;\n        uint liquidityBalance;\n    }\n\n    /***********************\n    @title MarketBalance structure\n    @author Aave\n    @notice the structure stores the information related to the markets of the pool.\n\n    ************************/\n\n    struct MarketData {\n\n        uint totalLiquidity;\n        uint interestRate;\n        bool active;\n    }\n\n    uint constant ERC20_APPROVAL_AMOUNT = 1000000000*1 ether;\n    uint constant BORROW_COLLATERAL_RATIO = 150; \n\n    address priceOracle;\n\n    mapping(address => UserData) usersData;\n    mapping(address => MarketData) marketsData;\n\n\n    constructor(address _priceOracle) public {\n        priceOracle = _priceOracle;\n    }\n\n    function approve(address _market) public {\n\n        require(ERC20(_market).approve(address(this), ERC20_APPROVAL_AMOUNT), \"Approval of the contract failed\");\n    }\n\n    function deposit(address _market, uint _amount) public {\n        \n        MarketData storage marketData = marketsData[_market];\n\n        marketData.totalLiquidity.add(_amount);\n\n        UserData storage userData = usersData[msg.sender];\n\n        userData.liquidityBalance.add(_amount);\n\n        require(\n            ERC20(_market).transferFrom(\n                msg.sender, \n                address(this), \n                _amount),\n            \"Approval of the contract failed\"\n            );                        \n    }\n\n    function withdraw(address _market, uint _amount) public {\n\n    }\n\n    function borrow(address _market, uint _amount) public {\n\n    }\n\n    function payback(address _market, uint _amount) public {\n\n    }       \n\n    function addMarket(address _market) public onlyOwner {\n        \n        MarketData storage data = marketsData[_market];\n\n        require(!data.active, \"Market is already added\");\n\n        data.active = true;\n\n    } \n\n\n    function getMarketData(address _market) public view returns(uint _totalLiquidity, uint _interestRate, bool _active) {\n\n        MarketData storage data = marketsData[_market];\n        _totalLiquidity = data.totalLiquidity;\n        _interestRate = data.interestRate;\n        _active = data.active;\n    }\n\n    function getUserData(address _market) public view returns(uint _borrowedBalance, uint _liquidityBalance) {\n       \n        UserData storage data = usersData[_market];\n        _borrowedBalance = data.borrowedBalance;\n        _liquidityBalance = data.liquidityBalance;\n\n    }\n    \n}",
  "sourcePath": "/app/contracts/LendingPool.sol",
  "compiler": {
    "name": "solc",
    "version": "0.5.6+commit.b259423e.Emscripten.clang"
  },
  "schemaVersion": "3.0.6",
  "updatedAt": "2019-04-23T13:33:20.547Z",
  "devdoc": {
    "author": "Aave",
    "methods": {
      "isOwner()": {
        "return": "true if `msg.sender` is the owner of the contract."
      },
      "owner()": {
        "return": "the address of the owner."
      },
      "renounceOwnership()": {
        "details": "Allows the current owner to relinquish control of the contract. It will not be possible to call the functions with the `onlyOwner` modifier anymore."
      },
      "transferOwnership(address)": {
        "details": "Allows the current owner to transfer control of the contract to a newOwner.",
        "params": {
          "newOwner": "The address to transfer ownership to."
        }
      }
    },
    "title": "LendingPool contract"
  },
  "userdoc": {
    "methods": {
      "renounceOwnership()": {
        "notice": "Renouncing ownership will leave the contract without an owner, thereby removing any functionality that is only available to the owner."
      }
    },
    "notice": "*********************This is a simple lending pool contract to learn the basics of how a decentralized liquidity fund works***********************"
  }
}